{
  "transactions": [
    {
      "hash": "0xce7bba640a1124e2358d4761205b92a31774a6629f4daa121f18be8376d0be04",
      "transactionType": "CALL",
      "contractName": null,
      "contractAddress": "0x779877a7b0d9e8603169ddbd7836e478b4624789",
      "function": "transferAndCall(address,uint256,bytes)",
      "arguments": [
        "0x9DdfaCa8183c41ad55329BdeeD9F6A8d53168B1B",
        "3000000000000000000",
        "0x0e898a37c3d11175ebcbcc9206116458404d10271b2837d76fb54507a530c494"
      ],
      "transaction": {
        "from": "0xb7ec73011d6ac41ec33eead9c362445095726249",
        "to": "0x779877a7b0d9e8603169ddbd7836e478b4624789",
        "gas": "0x14cbb",
        "value": "0x0",
        "input": "0x4000aea00000000000000000000000009ddfaca8183c41ad55329bdeed9f6a8d53168b1b00000000000000000000000000000000000000000000000029a2241af62c0000000000000000000000000000000000000000000000000000000000000000006000000000000000000000000000000000000000000000000000000000000000200e898a37c3d11175ebcbcc9206116458404d10271b2837d76fb54507a530c494",
        "nonce": "0x46",
        "chainId": "0xaa36a7"
      },
      "additionalContracts": [],
      "isFixedGasLimit": false
    }
  ],
  "receipts": [
    {
      "status": "0x1",
      "cumulativeGasUsed": "0x30c8a63",
      "logs": [
        {
          "address": "0x779877a7b0d9e8603169ddbd7836e478b4624789",
          "topics": [
            "0xddf252ad1be2c89b69c2b068fc378daa952ba7f163c4a11628f55a4df523b3ef",
            "0x000000000000000000000000b7ec73011d6ac41ec33eead9c362445095726249",
            "0x0000000000000000000000009ddfaca8183c41ad55329bdeed9f6a8d53168b1b"
          ],
          "data": "0x00000000000000000000000000000000000000000000000029a2241af62c0000",
          "blockHash": "0xa56efca2c0b338d2a2aef2e04db7049715d722a74d9b7044994cda9b7d196c74",
          "blockNumber": "0x826126",
          "blockTimestamp": "0x684cf9d8",
          "transactionHash": "0xce7bba640a1124e2358d4761205b92a31774a6629f4daa121f18be8376d0be04",
          "transactionIndex": "0x2d",
          "logIndex": "0x2d4",
          "removed": false
        },
        {
          "address": "0x779877a7b0d9e8603169ddbd7836e478b4624789",
          "topics": [
            "0xe19260aff97b920c7df27010903aeb9c8d2be5d310a2c67824cf3f15396e4c16",
            "0x000000000000000000000000b7ec73011d6ac41ec33eead9c362445095726249",
            "0x0000000000000000000000009ddfaca8183c41ad55329bdeed9f6a8d53168b1b"
          ],
          "data": "0x00000000000000000000000000000000000000000000000029a2241af62c0000000000000000000000000000000000000000000000000000000000000000004000000000000000000000000000000000000000000000000000000000000000200e898a37c3d11175ebcbcc9206116458404d10271b2837d76fb54507a530c494",
          "blockHash": "0xa56efca2c0b338d2a2aef2e04db7049715d722a74d9b7044994cda9b7d196c74",
          "blockNumber": "0x826126",
          "blockTimestamp": "0x684cf9d8",
          "transactionHash": "0xce7bba640a1124e2358d4761205b92a31774a6629f4daa121f18be8376d0be04",
          "transactionIndex": "0x2d",
          "logIndex": "0x2d5",
          "removed": false
        },
        {
          "address": "0x9ddfaca8183c41ad55329bdeed9f6a8d53168b1b",
          "topics": [
            "0x1ced9348ff549fceab2ac57cd3a9de38edaaab274b725ee82c23e8fc8c4eec7a",
            "0x0e898a37c3d11175ebcbcc9206116458404d10271b2837d76fb54507a530c494"
          ],
          "data": "0x0000000000000000000000000000000000000000000000006f05b59d3b20000000000000000000000000000000000000000000000000000098a7d9b8314c0000",
          "blockHash": "0xa56efca2c0b338d2a2aef2e04db7049715d722a74d9b7044994cda9b7d196c74",
          "blockNumber": "0x826126",
          "blockTimestamp": "0x684cf9d8",
          "transactionHash": "0xce7bba640a1124e2358d4761205b92a31774a6629f4daa121f18be8376d0be04",
          "transactionIndex": "0x2d",
          "logIndex": "0x2d6",
          "removed": false
        }
      ],
      "logsBloom": "0x00000004000000000001000000000000000000000020000000000000020000000000000000000000002000000000000000000000000000000000000000000000000000000000000000000008000000000000000000000000008020000020000008000000000000000000000000000000000000000000000000000010000040000000000000000000000000010000800000000020000000000000000001000000000000000000000000000000010000000000000000000000000004000000000000000002000000000000000000000000000000000000000100000000000000000010000000020000800010000000000000000000000000000000000000000000",
      "type": "0x2",
      "transactionHash": "0xce7bba640a1124e2358d4761205b92a31774a6629f4daa121f18be8376d0be04",
      "transactionIndex": "0x2d",
      "blockHash": "0xa56efca2c0b338d2a2aef2e04db7049715d722a74d9b7044994cda9b7d196c74",
      "blockNumber": "0x826126",
      "gasUsed": "0xf0e5",
      "effectiveGasPrice": "0xb43dd6",
      "from": "0xb7ec73011d6ac41ec33eead9c362445095726249",
      "to": "0x779877a7b0d9e8603169ddbd7836e478b4624789",
      "contractAddress": null
    }
  ],
  "libraries": [],
  "pending": [],
  "returns": {},
  "timestamp": 1749875161,
  "chain": 11155111,
  "commit": "79b014d"
}